S01600004C45445F41737369676E6D656E742E73726563C1
S11300000C9433000C9485040C94AE040C945000AE
S11300100C9450000C9450000C9450000C9450001C
S11300200C9450000C9450000C9450000C9450000C
S11300300C9450000C9450000C9450000C945000FC
S11300400C9450000C9450000C9450000C945000EC
S11300500C945000D600F200FB000A011F013A0183
S113006055016A01780111241FBECFE5D8E0DEBF37
S1130070CDBF10E0A0E6B0E0EAE4FBE002C00590EA
S11300800D92A436B107D9F720E0A4E6B0E001C090
S11300901D92AC36B207E1F70E9412030C94A3053B
S11300A00C9400008091660090916700883091055F
S11300B034F401969093670080936600089581E07C
S11300C090E09093670080936600089580916100AA
S11300D0909162008530910534F40196909362000A
S11300E080936100089581E090E090936200809392
S11300F0610008956091650081E40E940603811106
S11301003BC063E081E40E940603811137C065E0CF
S113011081E40E940603811133C067E081E40E94F8
S1130120060381112FC06091600084E40E940203E1
S113013081112AC063E084E40E940203811126C075
S11301400E9479040E946E040E9472040E94660454
S11301500E946A04809164000E94D704811118C02F
S11301600E94010586E690E00E94800482E590E00A
S11301700E947B0480E0089581E0089581E0089561
S113018081E0089581E0089582E0089582E0089571
S113019084E00895E0916600F0916700E930F1058C
S11301A008F0AEC0E65DFF4F0C949D0560916500BC
S11301B081E40E940E038111A5C063E081E40E94E2
S11301C00E038111A1C065E081E40E940E03811138
S11301D09DC067E081E40E940E03882309F498C05F
S11301E081E0089560E081E40E940A03882309F411
S11301F091C081E0089560E081E40E940A038111C6
S11302008BC063E081E40E940A03882309F486C05A
S113021081E0089560E081E40E940A03811180C0B6
S113022063E081E40E940A0381117CC065E081E4FB
S11302300E940A03882309F477C081E0089560E0EE
S113024081E40E940A03811171C063E081E40E9489
S11302500A0381116DC065E081E40E940A038111E3
S113026069C067E081E40E940A03882309F464C03A
S113027081E0089560E081E40E940E0381115EC074
S113028063E081E40E940A0381115AC065E081E4BD
S11302900E940A03811156C067E081E40E940A03A8
S11302A0882309F451C081E0089565E081E40E9447
S11302B00A0381114BC067E081E40E940A038111A3
S11302C047C063E081E40E940E03882309F442C01E
S11302D081E0089567E081E40E940A0381113CC033
S11302E065E081E40E940E038823C1F181E0089552
S11302F067E081E40E940E03882391F181E0089570
S113030080E0089581E0089581E0089581E00895F2
S113031080E0089580E0089581E0089580E00895E4
S113032081E0089581E0089580E0089581E00895D2
S113033081E0089581E0089580E0089581E00895C2
S113034081E0089581E0089580E0089581E00895B2
S113035081E0089580E0089581E0089580E00895A3
S113036080E00895CF930E94CA00C82F811126C04F
S113037084E690E00E947305811122C060E081E46C
S11303800E940E0381111EC063E081E40E940E03EB
S113039081111AC065E081E40E940E03811116C028
S11303A067E081E40E940E03811112C084E893E0A7
S11303B00E947305882369F0C4E00BC0C4E009C03F
S11303C0C4E007C0C1E005C0C1E003C0C1E001C092
S11303D0C1E08C2FCF910895CF930E94CA00C82FFB
S11303E0811126C088EC90E00E947305811122C01F
S11303F060E081E40E940E0381111EC063E081E489
S11304000E940E0381111AC065E081E40E940E036C
S1130410811116C067E081E40E940E03811112C0AD
S113042080E293E00E947305882369F0C4E00BC066
S1130430C4E009C0C4E007C0C1E005C0C1E003C016
S1130440C1E001C0C1E08C2FCF910895CF930E94E9
S1130450CA00C82F811126C08CE291E00E94730566
S1130460811122C060E081E40E940E0381111EC04C
S113047063E081E40E940E0381111AC065E081E407
S11304800E940E03811116C067E081E40E940E03EE
S1130490811112C08CEB92E00E947305882369F0ED
S11304A0C4E00BC0C4E009C0C4E007C0C1E005C09B
S11304B0C1E003C0C1E001C0C1E08C2FCF91089519
S11304C0CF930E94CA00C82F811126C084EF91E007
S11304D00E947305811122C060E081E40E940E0332
S11304E081111EC063E081E40E940E0381111AC0D1
S11304F065E081E40E940E03811116C067E081E487
S11305000E940E03811112C084EF91E00E947305D2
S1130510882369F0C4E00BC0C4E009C0C4E007C08C
S1130520C1E005C0C1E003C0C1E001C0C1E08C2F3F
S1130530CF910895CF930E94CA00C82F811126C07D
S113054080E293E00E947305811122C060E081E49F
S11305500E940E0381111EC063E081E40E940E0319
S113056081111AC065E081E40E940E03811116C056
S113057067E081E40E940E03811112C088EC90E0D0
S11305800E947305882369F0C4E00BC0C4E009C06D
S1130590C4E007C0C1E005C0C1E003C0C1E001C0C0
S11305A0C1E08C2FCF9108958091610090916200F9
S11305B083309105B9F034F48130910549F0029704
S11305C061F0F2CF8430910591F00597A9F0ECCF5A
S11305D00E94B201882341F313C00E94EC018823D6
S11305E019F30EC00E9426028823F1F209C00E946A
S11305F060028823C9F204C00E949A028823A1F2EF
S113060084E0089540E00E948B03089541E00E9435
S11306108B03089541E00E94D403089540E00E94B2
S1130620D40308950E947A000E94D40280E090E0EE
S113063008958234A9F018F4813431F00895833494
S1130640D9F0843429F108952AB381E090E002C0FE
S1130650880F991F6A95E2F7809582238ABB0895D3
S113066027B381E090E002C0880F991F6A95E2F7F2
S11306708095822387BB089524B381E090E002C073
S1130680880F991F6A95E2F78095822384BB0895A9
S113069021B381E090E002C0880F991F6A95E2F7C8
S11306A08095822381BB08958234A1F018F48134AB
S11306B031F008958334C9F0843411F108952AB3D4
S11306C081E090E002C0880F991F6A95E2F7822BBF
S11306D08ABB089527B381E090E002C0880F991F78
S11306E06A95E2F7822B87BB089524B381E090E0FA
S11306F002C0880F991F6A95E2F7822B84BB089584
S113070021B381E090E002C0880F991F6A95E2F757
S1130710822B81BB08956830D8F58234A9F018F48F
S1130720813431F037C08334D9F0843429F132C0B4
S1130730411104C00E94190380E00895413061F51D
S11307400E94540380E00895411104C00E941903DB
S113075080E00895413011F50E94540380E008952B
S1130760411104C00E94190380E008954130C1F48E
S11307700E94540380E00895411104C00E941903AB
S113078080E00895413071F40E94540380E008959C
S113079082E0089581E0089583E0089583E0089558
S11307A083E0089583E00895683008F083C08234BC
S11307B049F118F4813441F07FC0833409F440C016
S11307C0843409F45AC078C041110DC02BB381E0C0
S11307D090E002C0880F991F6A95E2F78095822302
S11307E08BBB80E00895413009F068C02BB381E0F1
S11307F090E002C0880F991F6A95E2F7822B8BBBA9
S113080080E0089541110DC028B381E090E002C05A
S1130810880F991F6A95E2F78095822388BB80E050
S11308200895413009F04CC028B381E090E002C043
S1130830880F991F6A95E2F7822B88BB80E00895A0
S113084041110DC025B381E090E002C0880F991FCB
S11308506A95E2F78095822385BB80E00895413054
S113086089F525B381E090E002C0880F991F6A954D
S1130870E2F7822B85BB80E0089541110DC022B3BD
S113088081E090E002C0880F991F6A95E2F7809595
S1130890822382BB80E008954130B1F422B381E029
S11308A090E002C0880F991F6A95E2F7822B82BB01
S11308B080E0089582E0089581E0089584E0089539
S11308C084E0089584E0089584E008958BB78064FB
S11308D08BBF08958BB780688BBF089585B78360FD
S11308E085BF089585B7886085BF85B7846085BF57
S11308F008957894089590936B0080936A00089506
S1130900909369008093680008951F920F920FB628
S11309100F9211242F933F934F935F936F937F9381
S11309208F939F93AF93BF93EF93FF93E0916A00EC
S1130930F0916B00309709F00995FF91EF91BF9109
S1130940AF919F918F917F916F915F914F913F9163
S11309502F910F900FBE0F901F9018951F920F921A
S11309600FB60F9211242F933F934F935F936F937E
S11309707F938F939F93AF93BF93EF93FF93E091F4
S11309806800F0916900309709F00995FF91EF91A3
S1130990BF91AF919F918F917F916F915F914F9193
S11309A03F912F910F900FBE0F901F9018958111BA
S11309B008C083B78F7B83BF83B7877F83BF80E003
S11309C00895813041F483B78F7B83BF83B78860F8
S11309D083BF80E00895823041F483B7806483BF8D
S11309E083B7877F83BF80E00895833041F483B762
S11309F0806483BF83B7886083BF80E0089581E00B
S1130A00089512BE089581110BC083B78E7F83BFF2
S1130A1083B78D7F83BF83B78B7F83BF80E00895C7
S1130A20813059F483B7816083BF83B78D7F83BFDF
S1130A3083B78B7F83BF80E00895823059F483B7F6
S1130A408E7F83BF83B7826083BF83B78B7F83BF6F
S1130A5080E00895833059F483B7816083BF83B7FE
S1130A60826083BF83B78B7F83BF80E00895843027
S1130A7059F483B78E7F83BF83B78D7F83BF83B7DA
S1130A80846083BF80E00895853059F483B7816022
S1130A9083BF83B78D7F83BF83B7846083BF80E0C8
S1130AA00895863059F483B78E7F83BF83B78260FD
S1130AB083BF83B7846083BF80E00895873059F48F
S1130AC083B7816083BF83B7826083BF83B7846049
S1130AD083BF80E0089582E0089513BE089588B727
S1130AE0816088BF0895FF920F931F93CF93DF9384
S1130AF08C01000F111F000F111F81E00E940305DC
S1130B00F82E81110FC0C0E0D0E006C008B600FE88
S1130B10FDCF0E946F052196C017D107B8F30E943C
S1130B206D0504C00F2EF3E0FF2EF02D8F2DDF9105
S1130B30CF911F910F91FF900895EE0FFF1F059025
S10D0B40F491E02D0994F894FFCF1E
S1070B4A02010000A0
S9030000FC
